{
  "abi": [
    {
      "anonymous": false,
      "inputs": [
        {
          "indexed": true,
          "internalType": "address",
          "name": "user",
          "type": "address"
        },
        {
          "indexed": true,
          "internalType": "address",
          "name": "token",
          "type": "address"
        },
        {
          "indexed": true,
          "internalType": "uint256",
          "name": "amount",
          "type": "uint256"
        }
      ],
      "name": "Deposit",
      "type": "event"
    },
    {
      "anonymous": false,
      "inputs": [
        {
          "indexed": true,
          "internalType": "address",
          "name": "user",
          "type": "address"
        },
        {
          "indexed": true,
          "internalType": "address",
          "name": "token",
          "type": "address"
        },
        {
          "indexed": true,
          "internalType": "uint256",
          "name": "amount",
          "type": "uint256"
        },
        {
          "indexed": false,
          "internalType": "uint256",
          "name": "remaining",
          "type": "uint256"
        }
      ],
      "name": "Withdraw",
      "type": "event"
    },
    {
      "inputs": [
        {
          "internalType": "address",
          "name": "token",
          "type": "address"
        },
        {
          "internalType": "address",
          "name": "_aggregator",
          "type": "address"
        }
      ],
      "name": "addAggregator",
      "outputs": [],
      "stateMutability": "nonpayable",
      "type": "function"
    },
    {
      "inputs": [
        {
          "internalType": "address",
          "name": "",
          "type": "address"
        }
      ],
      "name": "aggregator",
      "outputs": [
        {
          "internalType": "address",
          "name": "",
          "type": "address"
        }
      ],
      "stateMutability": "view",
      "type": "function"
    },
    {
      "inputs": [
        {
          "internalType": "address",
          "name": "user",
          "type": "address"
        },
        {
          "internalType": "address",
          "name": "token",
          "type": "address"
        }
      ],
      "name": "balanceOf",
      "outputs": [
        {
          "internalType": "uint256",
          "name": "balance",
          "type": "uint256"
        }
      ],
      "stateMutability": "view",
      "type": "function"
    },
    {
      "inputs": [
        {
          "internalType": "uint256",
          "name": "amount",
          "type": "uint256"
        },
        {
          "internalType": "address",
          "name": "token",
          "type": "address"
        }
      ],
      "name": "deposit",
      "outputs": [],
      "stateMutability": "nonpayable",
      "type": "function"
    },
    {
      "inputs": [
        {
          "internalType": "uint256",
          "name": "amount",
          "type": "uint256"
        }
      ],
      "name": "deposit",
      "outputs": [],
      "stateMutability": "payable",
      "type": "function"
    },
    {
      "inputs": [
        {
          "internalType": "address",
          "name": "token",
          "type": "address"
        }
      ],
      "name": "getPrice",
      "outputs": [
        {
          "internalType": "int256",
          "name": "",
          "type": "int256"
        }
      ],
      "stateMutability": "view",
      "type": "function"
    },
    {
      "inputs": [
        {
          "internalType": "address",
          "name": "user",
          "type": "address"
        },
        {
          "internalType": "address[]",
          "name": "tokens",
          "type": "address[]"
        }
      ],
      "name": "sumBalances",
      "outputs": [
        {
          "internalType": "uint256",
          "name": "sum",
          "type": "uint256"
        }
      ],
      "stateMutability": "view",
      "type": "function"
    },
    {
      "inputs": [
        {
          "internalType": "address",
          "name": "tokenIn",
          "type": "address"
        },
        {
          "internalType": "address",
          "name": "tokenOut",
          "type": "address"
        },
        {
          "internalType": "uint256",
          "name": "amountIn",
          "type": "uint256"
        },
        {
          "internalType": "address",
          "name": "recipient",
          "type": "address"
        }
      ],
      "name": "swap",
      "outputs": [],
      "stateMutability": "nonpayable",
      "type": "function"
    },
    {
      "inputs": [
        {
          "internalType": "uint256",
          "name": "amount",
          "type": "uint256"
        }
      ],
      "name": "unwrapEth",
      "outputs": [],
      "stateMutability": "nonpayable",
      "type": "function"
    },
    {
      "inputs": [],
      "name": "wethAddress",
      "outputs": [
        {
          "internalType": "address",
          "name": "",
          "type": "address"
        }
      ],
      "stateMutability": "pure",
      "type": "function"
    },
    {
      "inputs": [
        {
          "internalType": "uint256",
          "name": "amount",
          "type": "uint256"
        },
        {
          "internalType": "address",
          "name": "token",
          "type": "address"
        }
      ],
      "name": "withdraw",
      "outputs": [],
      "stateMutability": "nonpayable",
      "type": "function"
    },
    {
      "inputs": [
        {
          "internalType": "uint256",
          "name": "amount",
          "type": "uint256"
        }
      ],
      "name": "withdraw",
      "outputs": [],
      "stateMutability": "nonpayable",
      "type": "function"
    },
    {
      "inputs": [
        {
          "internalType": "uint256",
          "name": "amount",
          "type": "uint256"
        }
      ],
      "name": "wrapEth",
      "outputs": [],
      "stateMutability": "nonpayable",
      "type": "function"
    },
    {
      "stateMutability": "payable",
      "type": "receive"
    }
  ],
  "bytecode": {
    "object": "0x608060405234801561001057600080fd5b50600060208190527fad3228b676f7d3cd4284a5443f17f1962b36e491b30a40b2405849e597ba5fb580546001600160a01b0319908116735f0423b1a6935dc5596e7a24d98532b67a0aefd890811790925573b47e6a5f8b33b3f17603c83a0535a9dcd7e326819092527fff6a037caaef6a557a414e59dfffd773ee646f25a21998b708321d1215c5d3758054909216179055611044806100b26000396000f3fe6080604052600436106100c55760003560e01c8063521173c11161007f578063ae9779c611610059578063ae9779c61461024a578063b6b55f251461026a578063f7888aec1461027d578063fa5e42961461029d57600080fd5b8063521173c1146101c15780636e553f651461020a5780636e81221c1461022a57600080fd5b8062f714ce146100d15780632197159c146100f35780632e1a7d4d14610113578063391fd23f1461013357806341976e09146101665780634f0e0ef31461018657600080fd5b366100cc57005b600080fd5b3480156100dd57600080fd5b506100f16100ec366004610c8c565b6102d3565b005b3480156100ff57600080fd5b506100f161010e366004610cb8565b610434565b34801561011f57600080fd5b506100f161012e366004610cb8565b610535565b34801561013f57600080fd5b5061015361014e366004610ce7565b6105fe565b6040519081526020015b60405180910390f35b34801561017257600080fd5b50610153610181366004610dbf565b610680565b34801561019257600080fd5b5073b47e6a5f8b33b3f17603c83a0535a9dcd7e326815b6040516001600160a01b03909116815260200161015d565b3480156101cd57600080fd5b506100f16101dc366004610dda565b6001600160a01b03918216600090815260208190526040902080546001600160a01b03191691909216179055565b34801561021657600080fd5b506100f1610225366004610c8c565b610742565b34801561023657600080fd5b506100f1610245366004610e04565b61082e565b34801561025657600080fd5b506100f1610265366004610cb8565b6109a7565b6100f1610278366004610cb8565b610a7f565b34801561028957600080fd5b50610153610298366004610dda565b610b42565b3480156102a957600080fd5b506101a96102b8366004610dbf565b6000602081905290815260409020546001600160a01b031681565b3360009081526001602090815260408083206001600160a01b038516845290915290205482111561031f5760405162461bcd60e51b815260040161031690610e51565b60405180910390fd5b3360009081526001602090815260408083206001600160a01b038516845290915281205461034e908490610eb0565b3360008181526001602090815260408083206001600160a01b038816808552925291829020849055905163a9059cbb60e01b815260048101929092526024820186905291925063a9059cbb906044016020604051808303816000875af11580156103bc573d6000803e3d6000fd5b505050506040513d601f19601f820116820180604052508101906103e09190610ec7565b5082826001600160a01b0316336001600160a01b03167ff341246adaac6f497bc2a656f546ab9e182111d630394f0c57c710a59a2cb5678460405161042791815260200190565b60405180910390a4505050565b33600090815260016020908152604080832073b47e6a5f8b33b3f17603c83a0535a9dcd7e3268184529091529020548111156104c25760405162461bcd60e51b815260206004820152602760248201527f42616e6b3a2063616e6e6f7420756e77726170206d6f7265207468616e2064656044820152661c1bdcda5d195960ca1b6064820152608401610316565b6104cb81610b9d565b33600090815260026020526040812080548392906104ea908490610ee9565b909155505033600090815260016020908152604080832073b47e6a5f8b33b3f17603c83a0535a9dcd7e3268184529091528120805483929061052d908490610eb0565b909155505050565b336000908152600260205260409020548111156105645760405162461bcd60e51b815260040161031690610e51565b3360009081526002602052604081205461057f908390610eb0565b3360008181526002602052604080822084905551929350909184156108fc0291859190818181858888f193505050501580156105bf573d6000803e3d6000fd5b50604051818152829060009033907ff341246adaac6f497bc2a656f546ab9e182111d630394f0c57c710a59a2cb5679060200160405180910390a45050565b6000805b82518110156106785761062d83828151811061062057610620610f01565b6020026020010151610680565b6106508585848151811061064357610643610f01565b6020026020010151610b42565b61065a9190610f17565b6106649083610ee9565b91508061067081610f36565b915050610602565b505b92915050565b6001600160a01b038181166000908152602081905260408120549091166106a957506000919050565b6001600160a01b03808316600090815260208190526040808220548151633fabe5a360e21b815291519293169163feaf968c9160048082019260a0929091908290030181865afa158015610701573d6000803e3d6000fd5b505050506040513d601f19601f820116820180604052508101906107259190610f69565b5050509150506305f5e1008161073b9190610fb9565b9392505050565b3360009081526001602090815260408083206001600160a01b038516845290915281208054849290610775908490610ee9565b90915550506040516323b872dd60e01b8152336004820152306024820152604481018390526001600160a01b038216906323b872dd906064016020604051808303816000875af11580156107cd573d6000803e3d6000fd5b505050506040513d601f19601f820116820180604052508101906107f19190610ec7565b5060405182906001600160a01b0383169033907f5548c837ab068cf56a2c2479df0882a4922fd203edb7517321831d95078c5f6290600090a45050565b6000821161087e5760405162461bcd60e51b815260206004820152601a60248201527f4d7573742070617373206e6f6e20302045544820616d6f756e740000000000006044820152606401610316565b600061088b42600f610ee9565b60408051610100810182526001600160a01b03888116825287811660208301908152610bb8838501818152888416606086019081526080860188815260a087018c8152600060c0890181815260e08a018281529a5163414bf38960e01b81528a518a166004820152975189166024890152945162ffffff166044880152925187166064870152905160848601525160a4850152905160c4840152945190921660e4820152939450928291907368b3465833fb72a70ecdf485e0e4c7bd8665fc459063414bf3899089906101040160206040518083038185885af1158015610976573d6000803e3d6000fd5b50505050506040513d601f19601f8201168201806040525081019061099b9190610ff5565b50505050505050505050565b33600090815260026020526040902054811115610a145760405162461bcd60e51b815260206004820152602560248201527f42616e6b3a2063616e6e6f742077726170206d6f7265207468616e206465706f6044820152641cda5d195960da1b6064820152608401610316565b610a1d81610c05565b3360009081526002602052604081208054839290610a3c908490610eb0565b909155505033600090815260016020908152604080832073b47e6a5f8b33b3f17603c83a0535a9dcd7e3268184529091528120805483929061052d908490610ee9565b803414610aec5760405162461bcd60e51b815260206004820152603560248201527f42616e6b3a206d73672e76616c756520616e6420616d6f756e7420706172616d60448201527465746572206d757374206265207468652073616d6560581b6064820152608401610316565b3360009081526002602052604081208054839290610b0b908490610ee9565b9091555050604051819060009033907f5548c837ab068cf56a2c2479df0882a4922fd203edb7517321831d95078c5f62908390a450565b60006001600160a01b038216610b7157506001600160a01b03821660009081526002602052604090205461067a565b506001600160a01b03918216600090815260016020908152604080832093909416825291909152205490565b604051632e1a7d4d60e01b81526004810182905273b47e6a5f8b33b3f17603c83a0535a9dcd7e3268190632e1a7d4d90602401600060405180830381600087803b158015610bea57600080fd5b505af1158015610bfe573d6000803e3d6000fd5b5050505050565b73b47e6a5f8b33b3f17603c83a0535a9dcd7e326816001600160a01b031663d0e30db0826040518263ffffffff1660e01b81526004016000604051808303818588803b158015610c5457600080fd5b505af1158015610c68573d6000803e3d6000fd5b505050505050565b80356001600160a01b0381168114610c8757600080fd5b919050565b60008060408385031215610c9f57600080fd5b82359150610caf60208401610c70565b90509250929050565b600060208284031215610cca57600080fd5b5035919050565b634e487b7160e01b600052604160045260246000fd5b60008060408385031215610cfa57600080fd5b610d0383610c70565b915060208084013567ffffffffffffffff80821115610d2157600080fd5b818601915086601f830112610d3557600080fd5b813581811115610d4757610d47610cd1565b8060051b604051601f19603f83011681018181108582111715610d6c57610d6c610cd1565b604052918252848201925083810185019189831115610d8a57600080fd5b938501935b82851015610daf57610da085610c70565b84529385019392850192610d8f565b8096505050505050509250929050565b600060208284031215610dd157600080fd5b61073b82610c70565b60008060408385031215610ded57600080fd5b610df683610c70565b9150610caf60208401610c70565b60008060008060808587031215610e1a57600080fd5b610e2385610c70565b9350610e3160208601610c70565b925060408501359150610e4660608601610c70565b905092959194509250565b60208082526029908201527f42616e6b3a2063616e6e6f74207769746864726177206d6f7265207468616e2060408201526819195c1bdcda5d195960ba1b606082015260800190565b634e487b7160e01b600052601160045260246000fd5b600082821015610ec257610ec2610e9a565b500390565b600060208284031215610ed957600080fd5b8151801515811461073b57600080fd5b60008219821115610efc57610efc610e9a565b500190565b634e487b7160e01b600052603260045260246000fd5b6000816000190483118215151615610f3157610f31610e9a565b500290565b600060018201610f4857610f48610e9a565b5060010190565b805169ffffffffffffffffffff81168114610c8757600080fd5b600080600080600060a08688031215610f8157600080fd5b610f8a86610f4f565b9450602086015193506040860151925060608601519150610fad60808701610f4f565b90509295509295909350565b600082610fd657634e487b7160e01b600052601260045260246000fd5b600160ff1b821460001984141615610ff057610ff0610e9a565b500590565b60006020828403121561100757600080fd5b505191905056fea2646970667358221220666fff86103104ffa45f358cb7d3ed4a4e141f4ea95b6347a300b3289e0ecfcd64736f6c634300080d0033",
    "linkReferences": {}
  }
}