{
  "abi": [
    {
      "inputs": [],
      "stateMutability": "nonpayable",
      "type": "constructor"
    },
    {
      "anonymous": false,
      "inputs": [
        {
          "indexed": true,
          "internalType": "address",
          "name": "user",
          "type": "address"
        },
        {
          "indexed": true,
          "internalType": "address",
          "name": "token",
          "type": "address"
        },
        {
          "indexed": true,
          "internalType": "uint256",
          "name": "amount",
          "type": "uint256"
        }
      ],
      "name": "Deposit",
      "type": "event"
    },
    {
      "anonymous": false,
      "inputs": [
        {
          "indexed": true,
          "internalType": "address",
          "name": "user",
          "type": "address"
        },
        {
          "indexed": true,
          "internalType": "address",
          "name": "token",
          "type": "address"
        },
        {
          "indexed": true,
          "internalType": "uint256",
          "name": "amount",
          "type": "uint256"
        },
        {
          "indexed": false,
          "internalType": "uint256",
          "name": "remaining",
          "type": "uint256"
        }
      ],
      "name": "Withdraw",
      "type": "event"
    },
    {
      "inputs": [
        {
          "internalType": "address",
          "name": "user",
          "type": "address"
        },
        {
          "internalType": "address",
          "name": "token",
          "type": "address"
        }
      ],
      "name": "balanceOf",
      "outputs": [
        {
          "internalType": "uint256",
          "name": "",
          "type": "uint256"
        }
      ],
      "stateMutability": "view",
      "type": "function"
    },
    {
      "inputs": [
        {
          "internalType": "uint256",
          "name": "amount",
          "type": "uint256"
        },
        {
          "internalType": "address",
          "name": "token",
          "type": "address"
        }
      ],
      "name": "deposit",
      "outputs": [],
      "stateMutability": "nonpayable",
      "type": "function"
    },
    {
      "inputs": [
        {
          "internalType": "uint256",
          "name": "amount",
          "type": "uint256"
        },
        {
          "internalType": "address",
          "name": "token",
          "type": "address"
        }
      ],
      "name": "withdraw",
      "outputs": [],
      "stateMutability": "nonpayable",
      "type": "function"
    }
  ],
  "bytecode": {
    "object": "0x608060405234801561001057600080fd5b5061043d806100206000396000f3fe608060405234801561001057600080fd5b50600436106100405760003560e01c8062f714ce146100455780636e553f651461005a578063f7888aec1461006d575b600080fd5b610058610053366004610343565b6100b6565b005b610058610068366004610343565b61023d565b6100a461007b36600461036f565b6001600160a01b0391821660009081526020818152604080832093909416825291909152205490565b60405190815260200160405180910390f35b336000908152602081815260408083206001600160a01b038516845290915290205482111561013d5760405162461bcd60e51b815260206004820152602960248201527f42616e6b3a2063616e6e6f74207769746864726177206d6f7265207468616e2060448201526819195c1bdcda5d195960ba1b606482015260840160405180910390fd5b336000908152602081815260408083206001600160a01b038516845290915281205461016a9084906103af565b60405163a9059cbb60e01b8152336004820152602481018590529091506001600160a01b0383169063a9059cbb906044016020604051808303816000875af11580156101ba573d6000803e3d6000fd5b505050506040513d601f19601f820116820180604052508101906101de91906103c6565b50336000818152602081815260408083206001600160a01b03871680855290835292819020859055518481528693917ff341246adaac6f497bc2a656f546ab9e182111d630394f0c57c710a59a2cb567910160405180910390a4505050565b336000908152602081815260408083206001600160a01b03851684529091528120805484929061026e9084906103ef565b90915550506040516323b872dd60e01b8152336004820152306024820152604481018390526001600160a01b038216906323b872dd906064016020604051808303816000875af11580156102c6573d6000803e3d6000fd5b505050506040513d601f19601f820116820180604052508101906102ea91906103c6565b5060405182906001600160a01b0383169033907f5548c837ab068cf56a2c2479df0882a4922fd203edb7517321831d95078c5f6290600090a45050565b80356001600160a01b038116811461033e57600080fd5b919050565b6000806040838503121561035657600080fd5b8235915061036660208401610327565b90509250929050565b6000806040838503121561038257600080fd5b61038b83610327565b915061036660208401610327565b634e487b7160e01b600052601160045260246000fd5b6000828210156103c1576103c1610399565b500390565b6000602082840312156103d857600080fd5b815180151581146103e857600080fd5b9392505050565b6000821982111561040257610402610399565b50019056fea264697066735822122006a7811c56396e6f6562fa4e6c2864976e693e118898b309063b5b932e90a5da64736f6c634300080d0033",
    "linkReferences": {}
  }
}