{
  "abi": [
    {
      "inputs": [],
      "stateMutability": "nonpayable",
      "type": "constructor"
    },
    {
      "inputs": [
        {
          "internalType": "address",
          "name": "token",
          "type": "address"
        },
        {
          "internalType": "address",
          "name": "_aggregator",
          "type": "address"
        }
      ],
      "name": "addAggregator",
      "outputs": [],
      "stateMutability": "nonpayable",
      "type": "function"
    },
    {
      "inputs": [
        {
          "internalType": "address",
          "name": "",
          "type": "address"
        }
      ],
      "name": "aggregator",
      "outputs": [
        {
          "internalType": "address",
          "name": "",
          "type": "address"
        }
      ],
      "stateMutability": "view",
      "type": "function"
    },
    {
      "inputs": [
        {
          "internalType": "address",
          "name": "token",
          "type": "address"
        }
      ],
      "name": "getPrice",
      "outputs": [
        {
          "internalType": "int256",
          "name": "",
          "type": "int256"
        }
      ],
      "stateMutability": "view",
      "type": "function"
    }
  ],
  "bytecode": {
    "object": "0x608060405234801561001057600080fd5b50600060208190527fad3228b676f7d3cd4284a5443f17f1962b36e491b30a40b2405849e597ba5fb580546001600160a01b0319908116735f0423b1a6935dc5596e7a24d98532b67a0aefd890811790925573b47e6a5f8b33b3f17603c83a0535a9dcd7e326819092527fff6a037caaef6a557a414e59dfffd773ee646f25a21998b708321d1215c5d3758054909216179055610301806100b26000396000f3fe608060405234801561001057600080fd5b50600436106100415760003560e01c806341976e0914610046578063521173c11461006c578063fa5e4296146100aa575b600080fd5b6100596100543660046101c9565b6100eb565b6040519081526020015b60405180910390f35b6100a861007a3660046101e4565b6001600160a01b03918216600090815260208190526040902080546001600160a01b03191691909216179055565b005b6100d36100b83660046101c9565b6000602081905290815260409020546001600160a01b031681565b6040516001600160a01b039091168152602001610063565b6001600160a01b0381811660009081526020819052604081205490911661011457506000919050565b6001600160a01b03808316600090815260208190526040808220548151633fabe5a360e21b815291519293169163feaf968c9160048082019260a0929091908290030181865afa15801561016c573d6000803e3d6000fd5b505050506040513d601f19601f820116820180604052508101906101909190610231565b5050509150506305f5e100816101a69190610281565b9392505050565b80356001600160a01b03811681146101c457600080fd5b919050565b6000602082840312156101db57600080fd5b6101a6826101ad565b600080604083850312156101f757600080fd5b610200836101ad565b915061020e602084016101ad565b90509250929050565b805169ffffffffffffffffffff811681146101c457600080fd5b600080600080600060a0868803121561024957600080fd5b61025286610217565b945060208601519350604086015192506060860151915061027560808701610217565b90509295509295909350565b60008261029e57634e487b7160e01b600052601260045260246000fd5b600160ff1b8214600019841416156102c657634e487b7160e01b600052601160045260246000fd5b50059056fea264697066735822122076b13c7f8efe575ecae1b5d659a80043df5a92a9d1fcda99ab237416f1c4ddf764736f6c634300080d0033",
    "linkReferences": {}
  }
}